:020000040000FA
:10000000D04E0010D9000000DD000000DF0000002D
:10001000E1000000E3000000E50000000000000037
:10002000000000000000000000000000E7000000E9
:10003000E900000000000000EB000000551900007E
:10004000EF000000D91A00003D1B0000A51B0000B6
:10005000D91B0000EF000000EF000000EF000000DF
:10006000951D0000EF000000EF000000EF00000011
:10007000EF000000EF000000EF000000EF000000C4
:10008000EF00000039200000EF000000EF0000004A
:10009000EF000000EF000000EF000000EF000000A4
:1000A000EF000000EF000000EF000000EF00000094
:1000B000EF000000EF000000EF000000EF00000084
:1000C000EF000000DFF80CD00AF05EF800480047AF
:1000D000CF260000D04E001005480047FEE7FEE79F
:1000E000FEE7FEE7FEE7FEE7FEE7FEE7FEE7FEE7E8
:1000F000C50000004FF020008849086000BF874815
:10010000006810F0400FFAD04FF0030084490860F7
:100110004FF001008349C1F80C014FF00B008249F8
:1001200008604FF00100A1F1040108604FF0AA003F
:100130007E4908604FF055007A49C1F88C0000BF35
:100140007948001D006810F0806FF9D04FF003006F
:10015000774908604FF0AA007249C1F88C004FF04F
:100160005500724908604FF00300724908604FF073
:100170000100A1F1040108604FF0AA006E49086077
:100180004FF05500086000BF6A48001D006810F479
:10019000806FF9D04FF00300684908604FF0AA0063
:1001A0006049C1F8AC004FF05500634908604FF05A
:1001B00000006349086001F1040108606148624978
:1001C00008604FF000005749C1F8C8010846D0F850
:1001D0008800C0F30160032869D1514808300068E5
:1001E00010F0030006D0012823D002283FD00328B6
:1001F0005CD100E000BF55480068C0F30E0000F17C
:1002000001004FEA40014748D0F88800C0F307409A
:1002100000F10100B1FBF0F04D4900FB01F0404955
:100220000968C9B201F10101B0FBF1F04949086068
:100230003CE046480068C0F30E0000F101004FEAC0
:1002400040013848D0F88800C0F3074000F10100B1
:10025000B1FBF0F0404900FB01F031490968C9B237
:1002600001F10101B0FBF1F03A4908601EE03748A6
:100270000068C0F30E0000F101004FEA4001294878
:10028000D0F88800C0F3074000F10100B1FBF0F0A6
:100290004FF4FA4100FB01F021490968C9B201F1AC
:1002A0000101B0FBF1F02B49086000BF30E01C48B1
:1002B0000830006810F0030006D0012810D0022892
:1002C00019D0032823D100E000BF15480068C0B250
:1002D00000F101001E49B1FBF0F01E49086016E074
:1002E0000F480068C0B200F101001B49B1FBF0F0FB
:1002F000184908600BE00A480068C0B200F101002C
:100300004FF4FA41B1FBF0F01249086000BF00BFA2
:1003100043F23A000349086070470000A0C10F4053
:1003200004C10F4000C00F4084C00F408CC00F407C
:1003300080C00F40A4C00F40ACC00F40A0C00F4011
:10034000A8C10F40DE872804C4C00F4088C00F40FA
:1003500000093D0000000010001BB70010B501F0BF
:10036000E1FD0121002001F02FFE0121084601F0EE
:100370002BFEFF2001F047FE052001F06BFB10BDB6
:1003800070B504464FF0000005460146204601F0D6
:100390001BFE00BF052001F036FE054615F0010FDB
:1003A000F8D10121204601F00FFE70BD10B50446C2
:1003B0004FF00001204601F007FE062001F023FE69
:1003C0000121204601F000FE10BD2DE9F0418046DC
:1003D0000D4614461E464FF0000007464046FFF704
:1003E000E5FF0021404601F0EFFD022001F00BFE89
:1003F000C4F3074001F007FEC4F3072001F003FE39
:10040000E1B2084601F0FFFD4FF00000074609E0A9
:100410002978084601F0F7FD05F10100054607F1CE
:1004200001000746B742F3DB0121404601F0CCFD55
:100430004046FFF7A5FFBDE8F0812DE9F041804679
:100440000D4614461E464FF0000007460146404642
:1004500001F0BAFD032001F0D6FDC4F3074001F01E
:10046000D2FDC4F3072001F0CEFDE1B2084601F051
:10047000CAFD4FF00000074609E0FF2001F0C3FD70
:10048000287005F10100054607F101000746B74253
:10049000F3DB0121404601F097FDBDE8F08170B526
:1004A00005460C462846FFF781FF0021284601F04B
:1004B0008BFDD82001F0A7FDC4F3074001F0A3FD98
:1004C000C4F3072001F09FFDE1B2084601F09BFD57
:1004D0000121284601F078FD2846FFF751FF70BD45
:1004E00010B504462046FFF761FF0021204601F0C9
:1004F0006BFDC72001F087FD0121204601F064FD5E
:100500002046FFF73DFF10BD2DE9F04104464FF0B6
:10051000000005460646074680460146204601F093
:1005200053FD9F2001F06FFDFF2001F06CFD06469A
:100530004FF0FF0001F067FD07464FF0FF0001F0AC
:1005400062FD80464FF00101204601F03DFD4FEA7B
:10055000064040EA072040EA080005462846BDE874
:10056000F08170B504464FF00001204601F02CFDEB
:10057000052001F048FDFF2001F045FD05464FF044
:100580000101204601F020FD284670BD00BFA0F10A
:1005900001010800FBD1704700B502464FF0020090
:1005A000FF49C8654FF00100C865FE4800EA022017
:1005B0004FF4E06101EA421140EA01004FF01001FE
:1005C00001EA820140EA010002F0030140EA010071
:1005D000F34948634FF00400C8654FF00100FFF78E
:1005E000D5FF4FF00400EE4988654FF002008865A2
:1005F000ED4848634FF00100886500BD00B5024634
:100600004FF00200E649C8654FF001008865E548F3
:1006100000EA02204FF4E06101EA421140EA0100E1
:100620004FF0100101EA820140EA010002F00301EB
:1006300040EA0100DA4948634FF00400C8654FF012
:100640000100FFF7A3FF4FF00400D54988654FF084
:1006500002008865D44848634FF00100C86500BDBA
:1006600010B58820FFF7CAFF0A20FFF795FF022088
:1006700001F0F0F98920FFF7C1FF0220FFF78CFF9E
:10068000022001F0E7F910BD10B504460B462046E4
:10069000FFF7B4FF1846FFF77FFF10BD00B5034614
:1006A0004FF06000FFF7AAFFC3F3CF210846FFF722
:1006B00073FF6120FFF7A2FFC3F34F110846FFF756
:1006C0006BFF6220FFF79AFF98B2FFF765FF00BD4E
:1006D00000B503464FF06300FFF790FFC3F3CF214F
:1006E0000846FFF759FF6420FFF788FFC3F34F1157
:1006F0000846FFF751FF6520FFF780FF98B2FFF72C
:100700004BFF00BDF0B504460D461646A0B20746A5
:100710004FF03000FFF772FF3846FFF73DFFC4F39C
:100720000F2007464FF03100FFF768FF3846FFF70C
:1007300033FFA8B207464FF03400FFF75FFF38469B
:10074000FFF72AFFC5F30F2007464FF03500FFF7EC
:1007500055FF3846FFF720FFB0B207464FF0320092
:10076000FFF74CFF3846FFF717FFC6F30F20074689
:100770004FF03300FFF742FF3846FFF70DFF98B206
:1007800007464FF03600FFF739FF3846FFF704FF02
:10079000C3F30F2007464FF03700FFF72FFF38460F
:1007A000FFF7FAFEF0BD00B57D48006A7F4900EA18
:1007B00001007B4908624FF0040088654FF0020099
:1007C000C8654FF00100C8654FF00800C8654FF0DC
:1007D0000500FFF7DBFE7248406B4FF6C07101EA7F
:1007E00010206F49496B4FF0380303EA511140EA7A
:1007F00001006B49496B4FF0040303EA910140EAA1
:1008000001006749496B01F0030140EA010002461B
:100810004FF00800624988654FF00200886508467D
:10082000006A614940EA01005D4908625E48486328
:100830004FF001008865104600BD10B55220FFF74B
:10084000DDFEFFF7B0FFC0B2044604F0F800044636
:100850002046FFF7A1FE10BD10B54FF01000504923
:10086000C8654FF00A0001F0F5F84FF010004C4950
:1008700088654FF00A0001F0EDF810BD10B5FFF7E4
:10088000EBFF052001F0E6F8FFF7EAFE1020FFF786
:10089000B5FE0F20FFF780FE0420FFF7AFFE032018
:1008A000FFF77AFE012001F0D5F81420FFF7A6FE2D
:1008B0003B20FFF771FE1520FFF7A0FE0220FFF797
:1008C0006BFE1620FFF79AFE0320FFF765FE172048
:1008D000FFF794FE0120FFF75FFE1820FFF78EFE62
:1008E0000320FFF759FE1920FFF788FE0F20FFF7BE
:1008F00053FE1A20FFF782FE0120FFF74DFE1B205A
:10090000FFF77CFE0F20FFF747FE1C20FFF776FE67
:100910000020FFF741FE1D20FFF770FE0E20FFF7BD
:100920003BFE1E20FFF76AFE0620FFF735FE1F2064
:10093000FFF764FE0120FFF72FFE2020FFF75EFE89
:100940008020FFF729FEC1215220FFF79DFE802164
:100950004020FFF799FE01214120FFF795FEFFF7A8
:100960006CFF0421F020FFF78FFE04217120FFF7B8
:100970008BFEB2217020FFF787FE0421F120FFF7E4
:1009800083FE8C20FFF73AFE8020FFF705FE8C20C7
:10099000FFF734FE8120FFF7FFFD8D2008E0000007
:1009A00000C0092000C0FF0013C7FF00EC3800FFA3
:1009B000FFF724FE8020FFF7EFFD40F20F13002227
:1009C00040F2DF111046FFF79DFE0020FFF780FE8A
:1009D0004FF6FF70FFF762FE80218E20FFF754FE76
:1009E000012001F037F880210120FFF74DFE10BDF6
:1009F00000B5FA48006AFA4900EA0100F7490862BE
:100A00004FF00200C8654FF0010088654FF0040008
:100A100088654FF00800C8654FF00500FFF7B6FD88
:100A2000EE48406B4FF6C07101EA1020EB49496B6C
:100A30004FF0380303EA511140EA0100E749496BDE
:100A40004FF0040303EA910140EA0100E349496BD6
:100A500001F0030140EA010002464FF00800DF49BF
:100A600088654FF0020088650846006ADD4940EA63
:100A70000100DA490862DB4848634FF00100C865AD
:100A8000D0B200BD00B5D548006AD54900EA0100E2
:100A9000D24908624FF00200C8654FF00100886536
:100AA0004FF0040088654FF00800C8654FF005005E
:100AB000FFF76CFDC948406B4FF6C07101EA10208A
:100AC000C649496B4FF0380303EA511140EA01006F
:100AD000C249496B4FF0040303EA910140EA010067
:100AE000BE49496B01F0030140EA010002464FF0A4
:100AF0000800BA4988654FF0020088650846006A18
:100B0000B84940EA0100B5490862B64848634FF069
:100B10000100C865104600BD00B500BFFFF768FFC3
:100B200000F080018029F9D000BD00B500BFFFF7BB
:100B30005FFF00F040014029F9D000BD10B500BFB3
:100B4000BF20FFF75BFDFFF72EFEC4B204F00100EB
:100B50000128F5D010BD30B505460B4614464FF0C0
:100B60006000FFF74BFD2846FFF716FD6120FFF7F9
:100B700045FD1846FFF710FD6220FFF73FFD2046B8
:100B8000FFF70AFD30BD30B505460B4614464FF061
:100B90006300FFF733FD2846FFF7FEFC6420FFF7F4
:100BA0002DFD1846FFF7F8FC6520FFF727FD2046CE
:100BB000FFF7F2FC30BD30B503460C46D8B205460F
:100BC0004FF05C00FFF71AFD2846FFF7E5FC4FEAFF
:100BD000232005464FF05D00FFF710FD2846FFF784
:100BE000DBFCE0B205464FF05E00FFF707FD28464C
:100BF000FFF7D2FC4FEA242005464FF05F00FFF7D5
:100C0000FDFC2846FFF7C8FC30BD2DE9F04706463D
:100C10000F461446DDE90889E0B205464FF054005E
:100C2000FFF7ECFC2846FFF7B7FC4FEA2420054607
:100C30004FF05500FFF7E2FC2846FFF7ADFCD8B2B5
:100C400005464FF05800FFF7D9FC2846FFF7A4FCF3
:100C50004FEA232005464FF05900FFF7CFFC284606
:100C6000FFF79AFC08F0FF0005464FF05600FFF72B
:100C7000C5FC2846FFF790FC4FEA282005464FEABE
:100C8000C6704FEA1060824645EA0A0005464FF0FA
:100C90005700FFF7B3FC2846FFF77EFC09F0FF0082
:100CA00005464FF05A00FFF7A9FC2846FFF774FCF1
:100CB0004FEA292005464FEAC7704FEA1060824686
:100CC00045EA0A0005464FF05B00FFF797FC28460F
:100CD000FFF762FCBDE8F0872DE9FC4F06460F46A2
:100CE00015461C46DDE90DABDDE90B8953462A4666
:100CF00039463046CDE9004BFFF787FFA9EB0402E8
:100D0000521C92B21146A8EB0502521C92B2104638
:100D1000FFF751FF5120FFF771FCC220FFF73CFCA9
:100D20005020FFF76BFC8020FFF736FCFFF7FDFE3D
:100D3000BDE8FC8F30B503460C46D8B205464FF0EF
:100D40004600FFF75BFC2846FFF726FC4FEA23200E
:100D500005464FF04700FFF751FC2846FFF71CFC03
:100D6000E0B205464FF04800FFF748FC2846FFF781
:100D700013FC4FEA242005464FF04900FFF73EFCE4
:100D80002846FFF709FC30BD30B503460C46D8B203
:100D900005464FF02A00FFF731FC2846FFF7FCFB21
:100DA0004FEA232005464FF02B00FFF727FC28468B
:100DB000FFF7F2FBE0B205464FF02C00FFF71EFCF8
:100DC0002846FFF7E9FB4FEA242005464FF02D00A7
:100DD000FFF714FC2846FFF7DFFB30BD00C00920F9
:100DE000EC3800FF13C7FF0010B504464FF0800138
:100DF0004FF04000FFF748FC0220FFF7FFFB08E040
:100E000021780846FFF7C8FB04F101000446FFF70C
:100E100083FE20780028F3D110BD30B503460C4680
:100E2000D8B205464FF08000FFF7E8FB2846FFF7F1
:100E3000B3FB4FEA232005464FF08100FFF7DEFBAE
:100E40002846FFF7A9FBE0B205464FF08200FFF706
:100E5000D5FB2846FFF7A0FB4FEA242005464FF0BC
:100E60008300FFF7CBFB2846FFF796FB30BDF0B5BC
:100E700004460D461646E0B207464FF03800FFF72D
:100E8000BDFB3846FFF788FB4FEA242007464FF0AA
:100E90003900FFF7B3FB3846FFF77EFBE8B20746A1
:100EA0004FF03C00FFF7AAFB3846FFF775FB4FEA0F
:100EB000252007464FF03D00FFF7A0FB3846FFF71F
:100EC0006BFBF0B207464FF03A00FFF797FB38464E
:100ED000FFF762FB4FEA262007464FF03B00FFF783
:100EE0008DFB3846FFF758FBD8B207464FF03E005F
:100EF000FFF784FB3846FFF74FFB4FEA23200746F6
:100F00004FF03F00FFF77AFB3846FFF745FBF0BD97
:100F100030B503460C46D8B205464FF02400FFF723
:100F20006DFB2846FFF738FB4FEA232005464FF0BC
:100F30002500FFF763FB2846FFF72EFBE0B20546CE
:100F40004FF02600FFF75AFB2846FFF725FB4FEA34
:100F5000242005464FF02700FFF750FB2846FFF7F7
:100F60001BFB30BD30B505460B4614464FF0B400B0
:100F7000FFF744FB2846FFF70FFBB520FFF73EFBCA
:100F800029120846FFF708FBB620FFF737FB184683
:100F9000FFF702FBB720FFF731FB19120846FFF7F6
:100FA000FBFAB820FFF72AFB2046FFF7F5FAB92035
:100FB000FFF724FB21120846FFF7EEFA30BD00B51B
:100FC00003464FF0B000FFF719FB98B2FFF7E4FAC1
:100FD000B120FFF713FBC3F30F210846FFF7DCFA3C
:100FE000B220FFF70BFB190C0846FFF7D5FAB32028
:100FF000FFF704FB190E0846FFF7CEFA00BD70B5E7
:1010000003460C461546D8B206464FF09900FFF746
:10101000F5FA3046FFF7C0FA4FEA232006464FF0B4
:101020009A00FFF7EBFA3046FFF7B6FAE0B2064651
:101030004FF09B00FFF7E2FA3046FFF7ADFA4FEAB8
:10104000242006464FF09C00FFF7D8FA3046FFF701
:10105000A3FAE8B206464FF09D00FFF7CFFA3046FC
:10106000FFF79AFA70BDF0B504460D461646E0B299
:1010700007464FF0A500FFF7C1FA3846FFF78CFA94
:101080004FEA242007464FF0A600FFF7B7FA38468C
:10109000FFF782FAE8B207464FF0A700FFF7AEFA73
:1010A0003846FFF779FA4FEA252007464FF0A800A7
:1010B000FFF7A4FA3846FFF76FFAF0B207464FF091
:1010C000A100FFF79BFA3846FFF766FA4FEA2620A1
:1010D00007464FF0A200FFF791FA3846FFF75CFA97
:1010E000D8B207464FF0A300FFF788FA3846FFF75B
:1010F00053FA4FEA232007464FF0A400FFF77EFA89
:101100003846FFF749FAF0BDF0B504460D461646DD
:10111000E0B207464FF09100FFF770FA3846FFF74C
:101120003BFA4FEA242007464FF09200FFF766FA99
:101130003846FFF731FAE8B207464FF09500FFF75F
:101140005DFA3846FFF728FA4FEA252007464FF0A8
:101150009600FFF753FA3846FFF71EFAF0B207463B
:101160004FF09300FFF74AFA3846FFF715FA4FEAB7
:10117000262007464FF09400FFF740FA3846FFF765
:101180000BFAD8B207464FF09700FFF737FA384608
:10119000FFF702FA4FEA232007464FF09800FFF7C7
:1011A0002DFA3846FFF7F8F9F0BD30B503460C4686
:1011B000D8B205464FF0A900FFF720FA2846FFF7FE
:1011C000EBF94FEA232005464FF0AA00FFF716FA85
:1011D0002846FFF7E1F9E0B205464FF0AB00FFF714
:1011E0000DFA2846FFF7D8F94FEA242005464FF0BC
:1011F000AC00FFF703FA2846FFF7CEF930BD30B553
:1012000004464FF000014FF00600FFF73DFA3D2C79
:1012100008DA07210520FFF737FA0121C720FFF779
:1012200033FA25463C2C01DD012000E00020792C1A
:1012300001DA012100E0002108420AD087210520BF
:10124000FFF722FA0021C720FFF71EFAA4F13C00A5
:1012500005460221BF20FFF717FA40F20F130022C4
:1012600040F2DF111046FFF74DFA00210846FFF764
:1012700061FD691E89040846FFF7A1FE4FF4F07274
:101280004FF488711046FFF76DFE0321BF20FFF772
:10129000FBF9FFF753FC30BD2DE9F04F04460D4636
:1012A00016461F46DDE909894FF000014FF00600A0
:1012B000FFF7EAF93D2C08DA06210520FFF7E4F9EB
:1012C0000121C720FFF7E0F9A3463C2C01DD0120F6
:1012D00000E00020792C01DA012100E00021084221
:1012E0000AD086210520FFF7CFF90021C720FFF79C
:1012F000CBF9A4F13C0083460221BF20FFF7C4F9DB
:101300004346324639462846FFF7FCF9314628461F
:10131000FFF710FDABF101004FEA80410B98C0EBE5
:10132000001001EB801000EB490A5046FFF747FE22
:10133000A8EB0602521C92B211467A1B521C92B2C2
:1013400010464FF4F072FFF70DFE0321BF20FFF7A8
:101350009BF9FFF7F3FBBDE8F08F10B5F120FFF725
:101360004DF9FFF720FAC0B2044604F00400042847
:1013700001D1012010BD0020FCE710B5FFF713FAE2
:10138000C0B2044604F02000202801D1012010BD85
:101390000020FCE710B57420FFF730F9FFF703FADF
:1013A000C0B2044604F08000802801D1012010BDA5
:1013B0000020FCE710B57220FFF720F9FFF7F3F9E2
:1013C000C0B20446204610BD10B57320FFF716F9D1
:1013D000FFF7E9F9C0B20446204610BD10B57420ED
:1013E000FFF70CF9FFF7DFF9C0B20446204610BD45
:1013F00010B5044640F20F134FF0000240F2DF1127
:101400001046FFF77FF94FF6FF70FFF761F94FF6CF
:10141000FF70FFF743F980218E20FFF735F9052093
:1014200000F018FB10BD70B503460C461546D8B247
:1014300006464FF04600FFF7E1F83046FFF7ACF8FC
:10144000C3F3072006464FF04700FFF7D7F83046B2
:10145000FFF7A2F8E0B206464FF04800FFF7CEF8DB
:101460003046FFF799F8C4F3072006464FF04900CD
:10147000FFF7C4F83046FFF78FF80220FFF7BEF8F9
:10148000A8B2FFF789F870BD2DE9FE4106460C466B
:1014900015461F46DDF824803B462A462146304645
:1014A000CDE900840295FFF7F7FEBDE8FE8110B597
:1014B0005220FFF7A3F8FFF776F9C0B2044604F014
:1014C000F800044644F0010004462046FFF764F8A3
:1014D00010BD10B55220FFF791F8FFF764F9C0B2C4
:1014E000044604F0F800044644F002000446204696
:1014F000FFF752F85320FFF781F84FF00000044641
:1015000009E02046FFF748F8642000F0A3FA04F150
:101510000100C0B20446092CF3DB10BD00B5FE4843
:101520000078012802D1FFF788F904E0FA48007832
:1015300008B9FFF7BCFF00BD2DE9F04306460F4692
:1015400015469946DDF81C804FF0000004464B46D6
:101550003A4629463046FFF78AFCEF4800780128D2
:101560001CD1FFF7A4FF4FF0010004460DE000215D
:101570002046FFF7CDFC4FF4FA6108FB01F0FFF7BE
:1015800005F804F1010080B20446A81B401CA042EB
:10159000EDDA4FF00000E04908701EE0DE48007808
:1015A000D8B9FFF74AF94FF0010004460DE00021D9
:1015B0002046FFF7ADFC4FF4FA6108FB01F0FEF79F
:1015C000E5FF04F1010080B20446A81B401CA042C4
:1015D000EDDA4FF00100D0490870BDE8F0832DE945
:1015E000F04306460F4615469946DDF81C804FF03D
:1015F000000004464B463A4629463046FFF737FC82
:10160000C548007801281FD1FFF717F9A5EB0600A0
:1016100000F1020080B204460FE0611E89B2084664
:101620000021FFF775FC4FF4FA6108FB01F0FEF7AB
:10163000ADFFA4F1010080B20446002CEDDC4FF0B8
:101640000000B549087021E0B3480078F0B9FFF711
:101650002EFFA5EB060000F1020080B204460FE069
:10166000611E89B208460021FFF752FC4FF4FA616F
:1016700008FB01F0FEF78AFFA4F1010080B20446E6
:10168000002CEDDC4FF00100A3490870BDE8F083A9
:101690002DE9F04381460D4617461E46DDF81C80B5
:1016A0004FF00000044633462A4639464846FFF7C5
:1016B000DEFB9948007801281CD1FFF7F8FE4FF0B7
:1016C000010004460DE021460020FFF721FC4FF405
:1016D000FA6108FB01F0FEF759FF04F1010080B246
:1016E0000446701B401CA042EDDA4FF000008A490E
:1016F00008701EE088480078D8B9FFF79EF84FF0D0
:10170000010004460DE021460020FFF701FC4FF4E4
:10171000FA6108FB01F0FEF739FF04F1010080B225
:101720000446701B401CA042EDDA4FF001007A49DC
:101730000870BDE8F0832DE9F04381460D46174659
:101740001E46DDF81C804FF00000044633462A4652
:1017500039464846FFF78BFB6F48007801281FD1B8
:10176000FFF76BF8A6EB050000F1020080B204461B
:101770000FE0601E80B201460020FFF7C9FB4FF466
:10178000FA6108FB01F0FEF701FFA4F1010080B24D
:101790000446002CEDDC4FF000005F49087021E0AA
:1017A0005D480078F0B9FFF782FEA6EB050000F176
:1017B000020080B204460FE0601E80B201460020A5
:1017C000FFF7A6FB4FF4FA6108FB01F0FEF7DEFE1F
:1017D000A4F1010080B20446002CEDDC4FF00100C2
:1017E0004D490870BDE8F08300B54B480078C0F162
:1017F000010080B201464120FEF746FF00BD00B562
:10180000454801784120FEF73FFF00BD2DE9F04338
:1018100080460C4615461E46DDE90779FFF7EFFFC7
:1018200040F20F13002240F2DF111046FEF76AFF6C
:101830004FEA87704FEA106007464FF020014FF0E3
:101840002100FEF721FF03210620FEF71DFF812165
:101850002F20FEF719FFA8210520FEF715FF802095
:1018600040EA891001462220FEF70EFF39462E205D
:10187000FEF70AFF3046FEF72BFF29462046FFF70A
:1018800083FA4046FFF7B0FA00212120FEF7FCFE64
:1018900000212F20FEF7F8FEBDE8F0832DE9F0438C
:1018A00080460C4615461E46DDE907794FEA8770EB
:1018B0004FEA106007464FF020014FF02100FEF77D
:1018C000E3FE03210620FEF7DFFE81212F20FEF735
:1018D000DBFEA8210520FEF7D7FE802040EA891014
:1018E00001462220FEF7D0FE39462E20FEF7CCFE20
:1018F0003046FEF7EDFE29462046FFF745FA404602
:10190000FFF772FA00212120FEF7BEFE00212F20F2
:10191000FEF7BAFEBDE8F083040000102DE9F041A7
:1019200006460C4615461F46DDF818803B46224603
:1019300029463046FFF7E8FB4046FEF7C9FE302156
:101940009020FEF7A1FEB0219020FEF79DFEBDE89D
:10195000F08100004348006828B142480068A0F1C7
:101960000100404908604048006828B13E480068CE
:10197000A0F101003C4908603C48006828B13B48A0
:101980000068A0F10100394908603948006830B1A9
:1019900037480068A0F101003549086008E0354883
:1019A000007828B934480078012801D131490870FD
:1019B0003048007858B930480078012807D12F48BE
:1019C0000068322803D94FF001002A4908702C48DA
:1019D000006830B12A480068A0F101002849086079
:1019E00008E02848007828B923480078012801D168
:1019F000244908702348007858B91F480078012806
:101A000007D121480068322803D94FF001001D4951
:101A100008701E48006860B11D48007848B91B482E
:101A20000068401E1949086003D14FF001001849B1
:101A300008701848006860B11748007848B9154820
:101A40000068401E1349086003D14FF0010012499D
:101A5000087070470449086000BF034909680029FD
:101A6000FBD170471C000010080000100C00001093
:101A700014000010740000107600001080000010A8
:101A80001800001075000010840000109000001075
:101A90008D000010A00000109D0000104FF002010A
:101AA0004FF0402251604FF00001D16042F22731E7
:101AB00000FB01F191614FF0FF0111604FF0040153
:101AC00051614FF00101516000BF4FF04021496862
:101AD00011F0010FF9D170479F49496901F40021C4
:101AE00008464FF001014FF0402211609B490979EF
:101AF000B1EBD04F0CD19849496911F0020F07D1D1
:101B00004FF00001964A116096490978964A117083
:101B10009349096889B192490968491E904A116040
:101B200005D19149097801F101018F4A11708A4963
:101B3000496981F00401884A5161704786494969C1
:101B400001F4801108464FF00101884A1160834971
:101B50004979B1EB105F0FD17F49496911F0200F2E
:101B60000AD18349097839B14FF000017C4A5160AC
:101B700080490978804A11707949496889B1784962
:101B80004968491E764A516005D17B49097801F1BF
:101B90000101794A11707049496981F040016E4A2A
:101BA000516170476C49496901F4002108464FF0C2
:101BB0000101724A116069490979B1EBD04F06D130
:101BC0006F49096801F101016D4A116003E04FF0AE
:101BD00000016B4A116070475F49496901F4801147
:101BE00008464FF00101674A11605C494979B1EB41
:101BF000105F06D16449096801F10101624A116070
:101C000003E04FF00001604A1160704728B94FF0BF
:101C100001014FF04022516012E0012803D101463A
:101C2000524A51600CE0022804D14FF00101534A9E
:101C3000516005E0032803D14FF00101514A516082
:101C4000704728B94FF000014FF04022516013E077
:101C5000012804D14FF00001444A51600CE00228F1
:101C600004D14FF00001454A516005E0032803D13B
:101C70004FF00001434A51607047014651B94FF09F
:101C800040225268104640F0020210464FF04022B7
:101C9000506007E0354A5268104640F00202104694
:101CA000324A5060704770B505460C466DB94FF02A
:101CB000402084614FF003004FF0402148614FF015
:101CC000010000F039F8012070BD012D0BD127482B
:101CD00084614FF00300254948614FF0020000F095
:101CE0002BF80120F0E7022D10D12848006840F4BD
:101CF00080002749C1F8C400204884614FF00300E8
:101D00001E49486100F018F80120DDE7032D11D1CC
:101D10001E48006840F400001D49C1F8C40019487D
:101D200084612846174948614FF0040000F004F828
:101D30000120C9E70020C7E700F01F024FF00101B2
:101D400001FA02F14FEA50124FF0E02303EB820256
:101D5000C2F800117047000000C0092046010010C1
:101D6000200000108E0000108C0000100080004049
:101D7000A50000109E0000109C000010000009400B
:101D8000800000100040094084000010C4C00F40D3
:101D900000C00F4030B500BF594B9B68DBB21846FE
:101DA0004FEA6003184600F007031846032821D1C4
:101DB000534B197D11F09E0F05D0524B1960504BBB
:101DC0001B781A4630BD11F0010F41D04C4B1B78E7
:101DD0004D4C4E4D2D6863554C4B1B6803F1010370
:101DE0004A4C236023461B68102B31D14FF000036F
:101DF00023602DE0022813D1414B1B78424C434D08
:101E00002D686355414B1B6803F101033F4C236070
:101E100023461B68102B1BD14FF00003236017E0F3
:101E2000062806D1374B1B6843F48073354C23607A
:101E30000EE001280CD1324B197D11F0200F03D098
:101E40000346334C237003E04FF00003304C237003
:101E500000BFB7E770B503460A462E48006840F059
:101E600000702D4CC4F8C4002C48406A40F07060EB
:101E70002A4C60624FF08300214C20732848006890
:101E80004FEA9010B0FBF2F001464FEA11202071AA
:101E900001F1010020704FF0030020734FF00700A4
:101EA00020724FF008004FF0010404FA00F44FEAEA
:101EB00050154FF0E02606EB8505C5F8004100BF40
:101EC0004FF007000E4C60604FF0010070BD10B580
:101ED00012E000BF0E4B1B7813F0010FFAD00B7805
:101EE000074C23704FF00003094C237001F10103EC
:101EF0001946A2F101031A46002AEAD110BD0000DA
:101F000000C00940300000109C3800102C00001068
:101F100028000010C4C00F4000C00F4000C00240A5
:101F2000000000103E48006840F400103D49C1F830
:101F3000C4003D48006840F480303B4908600846D2
:101F4000406940F4803048613848406820F0030020
:101F5000364948600846006820F04040086008465E
:101F6000006840F0004008600846406820F03C00EF
:101F700048600846406840F0280048602948D0F88A
:101F8000AC0120F440602749C1F8AC010846D0F804
:101F9000AC0140F48060264908604FF0B400254948
:101FA00008614FF0070008604FF00200486070477A
:101FB000012804D14FF006011E4A116103E04FF0E1
:101FC000B4011C4A1161704770B131B1164A5269AF
:101FD00042F40022144B5A6114E0134A526922F46D
:101FE0000022114B5A610DE031B10F4A526942F49F
:101FF00080320D4B5A6105E00B4A526922F480325F
:10200000094B5A61704701460A48816000BF094880
:10201000C06810F0100FFAD106488068C0B270474F
:10202000C4C00F4000C00F4000C0092000C00240E3
:10203000ACC10F40008008405648007840F00100D5
:102040005449087070475348007A40F001005149E4
:1020500008724FF001000870704700B54FF00000A3
:102060004D4908604D48006840F400704C49C1F883
:10207000C4004C48007810F0100F06D04948007892
:1020800040F01000434981F85C004FF000004149E6
:102090000874087308724FF001000873FFF7D3FF4C
:1020A00000BD3C48007A20F001003A4908727047B0
:1020B0003848007A40F002003649087270470FB481
:1020C0003949009808703349019881F8240037494C
:1020D000029808702F49039881F82C00049881F821
:1020E00038000598888704B070470FB430490098CD
:1020F00008702849019881F864002E4902980870F8
:102100002449039881F86C00049881F878000598B8
:10211000A1F87C0004B0704710B586B00446224890
:10212000007800901B4890F8240001901F48007828
:1021300002902148007803902048007804901548C8
:10214000808F05904FF018026946204607F0C8FCC2
:1021500006B010BD0F4A107470470CB5FFF7A1FF11
:102160004FF0000016490860486088604FF0190081
:10217000C8604FF00800086140F2DB704861D1E9A7
:102180000401CDE900010E480FC8FFF798FFFFF7E3
:102190005AFF0CBD0040024034000010C4C00F4084
:1021A00000C00F405C4002402040024028400240F6
:1021B00060400240684002402C40024038400240EB
:1021C000AC380010A148C06840F070409F49C8601A
:1021D0009F48006840F480509E49C1F8C4009E4862
:1021E0009E49086070479D48006820F0E0609B4968
:1021F00008600846006840F48030086070479748DF
:10220000006820F4803095490860704700BF93480B
:10221000006910F0004FFAD090480169C1F30B102B
:10222000704700B5FFF7DFFFFFF7F0FF0246FFF74B
:10223000E6FF104600BD00BF8848406910F0004F1F
:10224000FAD08648406981B24FEA1110704700B554
:10225000FFF7C9FFFFF7EFFF0246FFF7D0FF104679
:1022600000BD00BF7D4A526912F0004FFAD07B4A90
:1022700012691046794A52691146C0F30B12104692
:10228000C1F30B12114641EA00421046704700B5F7
:10229000FFF7A9FFFFF7E5FF0346FFF7B0FF18467A
:1022A00000BD00BF6D48806910F0004FFAD06B4848
:1022B000806981B24FEA1110704700B5FFF793FFB4
:1022C000FFF7EFFF0246FFF79AFF104600BD00BF81
:1022D0006248C06910F0004FFAD06048C169C1F38C
:1022E0000B10704700B5FFF77EFFFFF7F0FF0246C7
:1022F000FFF785FF104600BD00BF584AD26912F0B3
:10230000004FFAD0554A92691046544AD269114694
:10231000C0F30B121046C1F30B12114641EA004202
:102320001046704700B5FFF75EFFFFF7E5FF034675
:10233000FFF765FF184600BD00BF484A926912F0DA
:10234000004FFAD0454A52691046444A92691146F4
:10235000C0F30B121046C1F30B12114641EA0042C2
:102360001046704700B5FFF73EFFFFF7E5FF034655
:10237000FFF745FF184600BD00BF3848006A10F05F
:10238000004FFAD03548016AC1F30B10704700BF07
:102390003248406A10F0004FFAD03048416AC1F329
:1023A0000B10704700B5FFF71EFFFFF7E5FF024671
:1023B000FFF725FF104600BD00B5FFF714FFFFF73C
:1023C000E6FF0246FFF71BFF104600BD00BF234A91
:1023D000526A12F0004FFAD0204A126A10461F4A81
:1023E000526A1146C0F30B121046C1F30B1211468C
:1023F00041EA00421046704700B5FFF7F4FEFFF7D0
:10240000E5FF0346FFF7FBFE184600BD00BF134A79
:10241000926A12F0004FFAD0104A526A10460F4AE0
:10242000926A1146C0F30B121046C1F30B1211460B
:1024300041EA00421046704700B5FFF7D4FEFFF7AF
:10244000E5FF0346FFF7DBFE184600BD00C0024073
:10245000C4C00F4000C00F40FF01210000400340F6
:10246000A148006C4FF000009F4908640846006CCA
:1024700040F01F0008640846806D40F01F0088652A
:102480000846006A4FF0000008620846006A974953
:1024900040EA0100944908620846806B934940EA8B
:1024A00001009149886370474FF00001084600BF62
:1024B0000BE04FF000018E4A02F8101002EB4002D0
:1024C000517000F10101C9B208461728F1DB4FF045
:1024D0000001084615E04FF00001864A42F820103E
:1024E000854A42F82010854A1154854A42F8201046
:1024F000844A42F82010844A115400F10101C9B203
:1025000008463228E7DB4FF00001804A1170804A0C
:102510001170804A1170804A1170804A1170804A8F
:1025200011704FF001017F4A11704FF000017E4A97
:1025300011707E4A11707E4A11707E4A11707E4A77
:1025400011707E4A116051607D4A11704FF0FF0199
:102550007C4A11704FF000017B4A11704FF0FF016F
:102560007A4A11704FF00101794A11704FF0000161
:10257000784A1170784A1170784A11604FF0010161
:10258000774A11704FF00001764A1170764A117047
:10259000764A1170764A1170764A1170764A117037
:1025A000704708B5FFF72BF90420FEF728FEFFF768
:1025B0001BF90320FEF723FE062040F20F1340F222
:1025C000DF12002100900846FEF7B6FFC820FFF793
:1025D00041FA08BD10B5FFF712F91420FEF70FFEFF
:1025E000FFF702F91420FEF70AFE10BD70B5FDF7E3
:1025F00081FD624800684FF06402B0FBF2F0A0F188
:102600000101B1F1807F00D327E021F07F40A0F1EC
:1026100001004FF0E02250614FF0FF304FF01F02F9
:1026200000280ADA4FEAC2634FEA1363544C00F001
:102630000F05A5F10405635505E04FEAC2634FEAB3
:102640001363504C235400BF4FF000004FF0E022C2
:1026500090614FF00700106100BFFFF725FF4FF4B6
:1026600061610020FFF71FFB0020FFF7EAFA4FF43B
:1026700061610120FFF717FB0120FFF7E2FA4249F1
:102680000220FFF710FB0220FFF7C0FA3E490320AB
:10269000FFF709FB0320FFF7B9FAFFF7E1FE01F0AE
:1026A0001AFBFEF7EBF8FFF77CFFFDF757FE00F093
:1026B000B4FCFFF78FFFFEF7C0F8FFF783FD70BD96
:1026C00002E0A0F1010108460028FAD17047FFF7A7
:1026D0008DFF03F023FD05E001F0A5F906F0F6FEFD
:1026E00003F09DF8F8E7000000C0092013C7FF00C1
:1026F0005C3D0010EC460010B44700107C48001010
:1027000014490010DC490010A44A00106A000010AF
:102710006B0000106C0000106D0000100400001031
:10272000380000103900001055000010560000104D
:102730005900001057000010580000102000001031
:10274000500100106E0000106F00001070000010AB
:10275000710000108F0000108E000010900000101B
:10276000A500001076000010840100107400001015
:102770008501001075000010A60000100000001078
:1027800018ED00E000E400E020BF02004FF000017F
:10279000084606E04FF0FF01FF4A115400F1010125
:1027A0000846FF28F6DD70474FF00001084606E0B6
:1027B0004FF0FF01F94A115400F101010846FF28CA
:1027C000F6DD70472DE9F04180460E4617464FF082
:1027D000000004460546A7F58070FD382BD1FFF7B1
:1027E000E3FF06F1FE00000202464FF48073EA495F
:1027F0004046FDF722FE4FF00000044608E004F1D9
:102800008000E549085CE549085504F101000446EB
:10281000802CF4DB300201464046FDF740FE3002DA
:1028200002464FF48073DD494046FDF7CEFD4FF080
:102830000100074602E007F101000746FFF7A6FF87
:102840004FF00000044619E04FF00000054610E08C
:10285000C4F1FF00D049085C4FF0010101FA05F115
:1028600020EA0100C4F1FF01CB4A505405F10100F8
:102870000546082DECDB04F101000446B4EBD70F4C
:10288000E2D34FF00000054610E0C4F1FF00C2495A
:10289000085C4FF0010101FA05F120EA0100C4F1E2
:1028A000FF01BD4A505405F10100054607F007003D
:1028B000A842EAD806F1FF00000202464FF48073F6
:1028C000B5494046FDF781FDBDE8F0812DE9F041B5
:1028D00007460E4640F2FD1080464FF000000446C9
:1028E000054606F1FF004FEA002002464FF48073D0
:1028F000A9493846FDF7A1FD4FF0000004461BE052
:102900004FF00000054612E0C4F1FF00A249085C48
:102910004FF0010101FA05F1084205D005EBC400B2
:1029200080464046BDE8F08105F101000546082DCE
:10293000EADB04F101000446FF2CE1DB4046F1E74D
:1029400070B504460D4629462046FFF7BFFF94495F
:1029500008600846006820B94FF0010091490870EE
:102960001BE08F480068A0F101004FEA50008E493B
:1029700008608B4800684FEA50008C49086088481E
:102980000068A0F1010000F0010089490870844846
:10299000006800F001008749087070BD10B54FF461
:1029A00080734FF478127C490020FDF746FD4FF00C
:1029B0000000044606E07848005D7F49085504F1B0
:1029C00001000446062CF6DB10BD10B54FF00000E8
:1029D000044606E07848005D6F49085504F101009F
:1029E0000446062CF6DB4FF478110020FDF757FD66
:1029F0004FF480734FF4781267490020FDF7E5FC2F
:102A000010BD70B504464FF000000546064604F1BF
:102A100003004FEA002001464FF00000FFF790FF4F
:102A2000E01C6149096801EB0020000202464FF4F6
:102A3000807359490020FDF700FD4FF00000054666
:102A400023E05B4800784FEAC0104FF0020101FB21
:102A500005005149085C0646554800784FEAC01009
:102A60004FF0020101FB050000F101004A49085C3A
:102A700040EA062004EBC401504A02EBC10121F8F0
:102A8000150005F10100C0B20546142DD9DB4FF049
:102A90000000054614E0464800784FEAC01000F1F7
:102AA000280028443C49095C04EBC400434A02EB7B
:102AB000C00000F12800415505F10100C0B20546F3
:102AC000142DE8DB3A4800784FEAC01000F13C00D2
:102AD0003149085C04EBC401384A02EBC10181F8BA
:102AE0003C00334800784FEAC01000F13D002A490D
:102AF000085C06462E4800784FEAC01000F13E0000
:102B0000085C40EA062004EBC40102EBC101C8875F
:102B1000274800784FEAC01000F13F001E49085CCA
:102B200004EBC40102EBC10181F8400020480078A9
:102B30004FEAC01000F140001749085C04EBC401E3
:102B400002EBC10181F84100194800784FEAC0103A
:102B500000F141001049085C04EBC40102EBC10123
:102B600081F84200124800784FEAC01000F142009C
:102B70000949085C06460E4800784FEAC01000F18B
:102B80004300085C40EA062004EBC40102EBC101EB
:102B9000A1F84400064813E01C3900103A4B00101D
:102BA000C8000010D8000010D0000010D4000010A1
:102BB000CC000010CD0000101C3A00103A4C001060
:102BC00000784FEAC01000F14400F849085C06465E
:102BD000F74800784FEAC01000F14500085C40EA71
:102BE000062004EBC40102EBC101A1F8460070BD50
:102BF00070B504464FF00000054604EBC401ED4AF1
:102C000002EBC10108464FF04802EB4906F068FFAD
:102C1000FFF7BCFD4FF0000005461AE004EBC400CE
:102C2000E44901EBC00030F815004FEA2020DF4AEC
:102C300002F8150004EBC40001EBC00030F81500E9
:102C40004FEA450101F10101505405F10100C0B204
:102C50000546142DE2DB4FF0000005460FE004EBC3
:102C6000C400D44901EBC00000F12800415D05F12A
:102C70002800CE4A115405F10100C0B20546142DBA
:102C8000EDDB04EBC400CB4901EBC00090F83C0045
:102C9000C64981F83C0004EBC400C64901EBC00002
:102CA000C08F4FEA2020C14981F83D0004EBC400E9
:102CB000C04901EBC000C08FBC4981F83E0004EB65
:102CC000C400BC4901EBC00090F84000B74981F84E
:102CD0003F0004EBC400B74901EBC00090F841008D
:102CE000B24981F8400004EBC400B24901EBC000D6
:102CF00090F84200AD4981F8410004EBC400AD49B1
:102D000001EBC000B0F844004FEA2020A74981F849
:102D1000420004EBC400A74901EBC000B0F8440036
:102D2000A24981F8430004EBC400A24901EBC000B2
:102D3000B0F846004FEA20209C4981F8440004EB9B
:102D4000C4009C4901EBC000B0F84600974981F8E7
:102D5000450004F103004FEA004001464FF0000037
:102D6000FDF79DFBE01C000402464FF480738F4981
:102D70000020FDF72AFBE01C00020146002210465D
:102D8000FFF720FD70BD10B5044604F104008B4927
:102D9000085C612809D02046FFF72AFF4FF0610147
:102DA00004F10400854A115402E02046FFF729FE91
:102DB00010BD10B54FF0000004464FF40031FFF78E
:102DC000BFFD7F48006800F50030000202464FF466
:102DD000807376490020FDF730FB4FF00000044679
:102DE00018E07348007804EBC0107049085C75491E
:102DF00008556F4800784FEAC01000F104002044E5
:102E00006A49095C6F4800F10400015504F10100B2
:102E1000C0B20446042CE4DB10BD10B54FF0000036
:102E20000446684868490A68026049684160FFF7DB
:102E3000ADFC4FF0000004460EE06248005D5B49C7
:102E400008556048001D015D04F10400574A115403
:102E500004F10100C0B20446042CEEDB4FF0007117
:102E60000020FDF71CFB4FF480735A044F490020EB
:102E7000FDF7ABFA00224FF400311046FFF7A2FC39
:102E800010BD10B54D48C078512806D0FFF7C5FFDA
:102E90004FF051004949C87001E0FFF78AFF10BDAB
:102EA00010B54FF0000004464FF48071FFF748FD65
:102EB0004348006800F58070000202464FF48073BA
:102EC0003A490020FDF7B9FA394800784FEAC010B6
:102ED0003649085C0446364800784FEAC01000F1D5
:102EE0000100085C40EA0420384908803048007836
:102EF0004FEAC01000F102002C49085C3349887089
:102F00002B4800784FEAC01000F103002749085C05
:102F10000446274800784FEAC01000F10400085C1E
:102F200040EA04202949888010BD10B52748284967
:102F30000A68026089888180FFF728FC234800889E
:102F40004FEA2020194908702048008848701F481F
:102F5000807888701D4880884FEA2020C8701B4800
:102F6000808808714FF480314FF00000FDF797FA28
:102F70004FF480731A020D490020FDF726FA002253
:102F80004FF480711046FFF71DFC10BD10B50B48C3
:102F90004078232806D0FFF7C8FF4FF023000749E9
:102FA000487001E0FFF77CFF10BD00001C390010E5
:102FB000CC0000103A4C0010F00000101C3A001039
:102FC000D000001046010010E80000103801001089
:102FD000DA00001010B54FF480734FF47C12FF49F3
:102FE0000020FDF72AFAFD480078912814D000202F
:102FF000FDF776FA4FF00100F9490870FFF7C6FBBC
:103000004FF09100F54908704FF480734FF47C1233
:103010004FF00000FDF7D9F910BD10B5FFF7DAFF4A
:10302000FFF7BCFCFFF7B2FFFFF72BFF0020FFF715
:10303000AAFE0120FFF7A7FEFFF7C7FC10BD10B5E1
:10304000FFF773FF10BD10B5E6480078122806D0D0
:10305000FFF783F84FF01200E249087002E0E248FF
:10306000FFF75AF810BD10B54FF480710020FFF73C
:1030700067FCDE480068000202464FF48073D749BF
:103080000020FDF7DAF9DA4800784FEAC010D3499A
:10309000085C0446D64800784FEAC01000F10100F1
:1030A000085C40EA0420D3490880D14800784FEA00
:1030B000C01000F10200C949085C0446CC48007801
:1030C0004FEAC01000F10300085C40EA0420C9493F
:1030D0004880C74800784FEAC01000F10400BF499B
:1030E000085C0446C24800784FEAC01000F10500B1
:1030F000085C40EA0420BF498880BD4800784FEA58
:10310000C01000F10600B549085C0446B8480078D4
:103110004FEAC01000F10700085C40EA0420B549FE
:10312000C88010BD10B5B348B3490A680260496849
:103130004160FFF72BFBAF4800884FEA1020A749FA
:103140000870AC4800884870AA4840884FEA1020B0
:103150008870A8484088C870A64880884FEA102028
:103160000871A44880884871A248C0884FEA10209E
:103170008871A048C088C8714FF000010846FDF76B
:103180008EF94FF48073002294491046FDF71DF923
:10319000002211461046FFF715FB10BD10B59148EF
:1031A0008078712806D0FFF7BDFF4FF071008D4980
:1031B000887001E0FFF757FF10BD4FF0000108468F
:1031C0000DE00C2804DA4FF02001844A115403E08A
:1031D0004FF0FF01814A115400F101010846FF2818
:1031E000EFDD704710B54FF480710020FFF7A8FBAA
:1031F00082480078B0B9FFF7C9FA814800884FEAE1
:103200002020764908707E48008848707C48807885
:1032100088707B4880884FEA2020C8707848808872
:1032200008713BE07148006800F5807000020246BA
:103230004FF4807369490020FDF7FFF8704800885B
:103240004FEA20206D4909784FEAC111634A505472
:103250006B480088694909784FEAC11101F1010101
:10326000505467488178654800784FEAC01000F1F3
:1032700002001154624880884FEA20205F49097893
:103280004FEAC11101F1030150545D4880885B4948
:1032900009784FEAC11101F10401505459480068FE
:1032A00000F58070000202464FF480734B49002005
:1032B000FDF78BF854484FF4807102680020FFF747
:1032C00081FA10BD10B500210846FFF739FB4B48C5
:1032D000007818BBFFF75AFA464800884FEA1020DA
:1032E0003E490870434800884870424840884FEA89
:1032F000102088703F484088C8703E4880884FEA58
:10330000102008713B48808848713A48C0884FEACD
:10331000102088713748C088C87158E03348006869
:10332000000202464FF480732C490020FDF785F817
:10333000304800884FEA1020304909784FEAC1111F
:10334000264A50542B4800882C4909784FEAC1116D
:1033500001F101015054274840884FEA10202749C5
:1033600009784FEAC11101F1020150542148408807
:10337000224909784FEAC11101F1030150541D4857
:1033800080884FEA10201D4909784FEAC11101F1E8
:103390000401505417488088184909784FEAC11130
:1033A00001F1050150541348C0884FEA1021134819
:1033B00000784FEAC01000F1060011540D48C08893
:1033C0000E4909784FEAC11101F1070150540D4827
:1033D0000068000202464FF4807317E01C390010A9
:1033E000400000101C3A0010C4380010D00000103B
:1033F000CC0000103E010010E0000010CD000010D5
:1034000038010010D4000010C8000010FF4900204F
:10341000FCF7DBFFFE48002102680846FFF7D2F9FF
:1034200010BD10B54FF0000004464FF40031FFF717
:1034300087FAF8480078B8B9FFF7A8F94FF000000C
:1034400004460EE0F448005DF0490855F248001DBE
:10345000015D04F10400ED4A115404F10100C0B211
:103460000446042CEEDB29E0EC48006800F500304F
:10347000000202464FF48073E4490020FCF7DDFFB0
:103480004FF00000044617E0E348015DE148007892
:1034900004EBC010DD4A1154DF4800F10400015D67
:1034A000DC4800784FEAC01000F1040020441154B9
:1034B00004F10100C0B20446042CE5DBD8480068E2
:1034C00000F50030000202464FF48073CF4900201F
:1034D000FCF77BFFCE484FF4003102680020FFF775
:1034E00071F910BD70B504464FF00000054604F1B7
:1034F00003004FEA002001464FF00000FFF720FADA
:10350000C448007800287ED1FFF740F94FF0000052
:1035100005461AE004EBC400C24901EBC00030F8D4
:1035200015004FEA2020B94A02F8150004EBC40048
:1035300001EBC00030F815004FEA450101F101012F
:10354000505405F10100C0B20546142DE2DB4FF0E6
:10355000000005460FE004EBC400B24901EBC000D7
:1035600000F12800415D05F12800A84A115405F139
:103570000100C0B20546142DEDDB04EBC400A949DF
:1035800001EBC00090F83C00A04981F83C0004EB3E
:10359000C400A44901EBC000C08F4FEA20209B4922
:1035A00081F83D0004EBC4009E4901EBC000C08FD0
:1035B000964981F83E0004EBC4009A4901EBC00033
:1035C00090F84000914981F83F0004EBC400954910
:1035D00001EBC00090F841008C4981F8400004EBF9
:1035E000C400904901EBC00090F84200874981F87F
:1035F000410004EBC4008B4901EBC000B0F844006B
:103600004FEA202000E023E0804981F8420004EBEB
:10361000C400844901EBC000B0F844007B4981F844
:10362000430004EBC4007F4901EBC000B0F8460042
:103630004FEA2020754981F8440004EBC400794921
:1036400001EBC000B0F84600704981F84500F6E093
:10365000E01C724909680844000202464FF4807376
:103660006A490020FCF7E9FE4FF00000054629E01A
:1036700004EBC4006B4901EBC00030F815004FEAC1
:103680002020644909784FEAC1114FF0020202FB81
:1036900005115E4A505404EBC400624901EBC000BE
:1036A00030F815005B4909784FEAC1114FF002026A
:1036B00002FB051101F10101544A505405F10100CA
:1036C000C0B20546142DD3DB4FF00000054614E0D0
:1036D00004EBC400534901EBC00000F12800415D38
:1036E0004C4800784FEAC01000F128002844474AAF
:1036F000115405F10100C0B20546142DE8DB04EBBE
:10370000C400484901EBC00090F83C1041480078E3
:103710004FEAC01000F13C003C4A115404EBC400D5
:10372000404901EBC000C08F4FEA20203949097899
:103730004FEAC11101F13D01505404EBC400394975
:1037400001EBC000C08F334909784FEAC11101F184
:103750003E01505404EBC400324901EBC00090F824
:1037600040102C4800784FEAC01000F13F0011547F
:1037700004EBC4002B4901EBC00090F84110254830
:1037800000784FEAC01000F14000115404EBC4006F
:10379000244901EBC00090F842101E4800784FEA1F
:1037A000C01000F14100115404EBC4001D4901EBAD
:1037B000C000B0F844004FEA2020164909784FEACB
:1037C000C11101F14201505404EBC400154901EB51
:1037D000C000B0F844000F4909784FEAC11101F167
:1037E0004301505404EBC4000E4901EBC000B0F893
:1037F00046004FEA2020074909784FEAC11101F13C
:103800004401505404EBC40006490DE01C3900107B
:10381000C8000010CD00001046010010D0000010BC
:10382000D40000103A4C001001EBC000B0F8460084
:103830000E4909784FEAC11101F145015054E01CCD
:103840000B49096801EB0020000202464FF4807327
:1038500008490020FCF7B9FDE01C000201460648BB
:1038600002680020FEF7AEFF70BD0000CD00001022
:10387000D40000101C390010C800001070B50246BA
:103880000D464FF000000346044600BF00BF06E0AF
:1038900035F813002044044603F101000346934227
:1038A000F6DB4FF47A7004FB00F4B4FBF2F1B1FBE9
:1038B000F0F600FB1610B0F5FA7F09D94FF47A70D4
:1038C000B1FBF0F600FB1610C0F57A700844014613
:1038D0004FF47A70B1FBF0F0014688B270BDF0B5DC
:1038E00003464FF00000064607464FF0010004462D
:1038F00024E04FF00000024618E031F812C0501CDE
:1039000031F8100084450EDD31F8125002F101004B
:1039100031F8100021F8120002F1010021F81050D6
:103920004FF00100064602F101000246181B9042CA
:10393000E3DC06B904E004F1010004469C42D8DB54
:1039400000BF184603EBD07CCCF3470C674631F838
:103950001700F0BD30B501464FF000052A462B4652
:103960002C4628460D782B460D782C464FF0010545
:103970002A460DE08D5CA54201D98D5C2C468D5CFC
:103980009D4201D28D5C2B4602F10105ADB22A4663
:103990000F2AEFDBE51A0F2D03D24FF00105284661
:1039A00002E04FF00005284630BD4FF00001084608
:1039B00000BF09E04FF00001894A1154894A1154AF
:1039C00000F1010189B208463228F3DB704710B5D7
:1039D000044685480068A0420DD3834800689042A1
:1039E00009D882480068884205D380480068984218
:1039F00001D8012010BD0020FCE710B504467C482A
:103A00000068A0420DD37A480068904209D87948EE
:103A10000068884205D377480068984201D80120A1
:103A200010BD0020FCE72DE9F0474FF000000446F0
:103A300080468146064607464FF004014FF0F100EC
:103A4000FCF722FE4FF4FA60FEF73AFEFDF785FC24
:103A500000287DD068480088322879DAFDF7AAFC72
:103A60005F49654A12888854FDF7AEFC5D49624A99
:103A7000128888546048008800F101005E4908807F
:103A80000846008832287DD14FF0000008804FF0B2
:103A900004014FF0F100FCF7F7FD51481E30FFF72D
:103AA00059FF80464F4800F11E00FFF753FF814643
:103AB000B8F1010FE7D1B9F1010FE4D14FF00100E6
:103AC0004E4908704FF000054FF00000044609E031
:103AD00004F11E004249085C2844054604F1010037
:103AE00080B204460F2CF3DB4FF00F00B5FBF0F073
:103AF00006464FF000000546044609E004F11E00AA
:103B00003849085C2844054604F1010080B20446A7
:103B10000F2CF3DB4FF00F00B5FBF0F00746C6F1BA
:103B2000F401081E01DB014601E0C0F100010E4670
:103B300045F6710006FB00F042F21071B0FBF1F0A7
:103B400029490860C7F1E701081E02DB014602E0CF
:103B500027E0C0F100010F4643F2933007FB00F06D
:103B600042F21071B0FBF1F0204908601E48006875
:103B7000B0F5F07F03D340F2DF101B4908601B480B
:103B8000006800E029E0B0F5887F03D340F20F1011
:103B9000164908604FF00000154908601549086093
:103BA0001BE016480078012817D14FF00000134998
:103BB00008704FF0010012490870FFF7F6FE0A483E
:103BC00000680B490860094800680A4908604FF01E
:103BD00000000549086005490860BDE8F08700005D
:103BE0003C3A0010A03A00104400001048000010B9
:103BF0004C000010500000105A0000105700001038
:103C000058000010012810D131B9FF4A526922F042
:103C10000802FD4B5A611AE0012918D1FA4A52698B
:103C200042F00802F84B5A6111E002280FD131B975
:103C3000F54A526922F08002F34B5A6107E00129EC
:103C400005D1F14A526942F08002EF4B5A61704748
:103C5000012810D131B9EC4A526922F00102EA4B35
:103C60005A6137E0012935D1E74A526942F0010231
:103C7000E54B5A612EE0022810D131B9E24A52696F
:103C800022F01002E04B5A6124E0012922D1DE4AE1
:103C9000526942F01002DC4B5A611BE0032819D133
:103CA00059B9D94A526922F00102D74B5A611A46D2
:103CB000526922F010025A610CE001290AD1D24A5D
:103CC000526942F00102D04B5A611A46526942F0E1
:103CD00010025A61704700B5CB4800684FF00000F1
:103CE000C949086008460068C84940EA0100C64959
:103CF000086008468069C54940EA0100C2498861F8
:103D00004FF001010846FFF7A3FF01210846FFF726
:103D100079FF01210220FFF79BFF01210220FFF71D
:103D200071FF00BD012810D131B9B74A526922F0A4
:103D30000202B54B5A6137E0012935D1B24A5269C6
:103D400042F00202B04B5A612EE0022810D131B984
:103D5000AD4A526922F02002AB4B5A6124E001299E
:103D600022D1A94A526942F02002A74B5A611BE0B6
:103D7000032819D159B9A44A526922F00202A24B70
:103D80005A611A46526922F020025A610CE0012958
:103D90000AD19D4A526942F002029B4B5A611A466F
:103DA000526942F020025A61704701280BD1964AAD
:103DB000526922F0C072944B5A611A46526942EA23
:103DC000C1525A610CE002280AD18F4A526922F08E
:103DD000C0628D4B5A611A46526942EA41625A6189
:103DE0007047012806D0022815D0032824D00428C3
:103DF00044D132E031B9844A526922F48072824B54
:103E00005A6107E0012905D17F4A526942F4807264
:103E10007D4B5A6133E031B97B4A526922F400721A
:103E2000794B5A6107E0012905D1774A526942F47A
:103E30000072754B5A6122E031B9734A526922F41B
:103E40008062714B5A6107E0012905D16E4A5269BF
:103E500042F480626C4B5A6111E031B96A4A52698E
:103E600022F40062684B5A6107E0012905D1664AD5
:103E7000526942F40062644B5A6100E000BF00BF27
:103E80007047012806D16049496921F004015E4A62
:103E9000516115E0022806D15B49496921F04001D2
:103EA000594A51610CE003280AD15749496921F068
:103EB0000401554A51611146496921F0400151619F
:103EC000704701464FF000021046012906D0022932
:103ED0000DD0032914D0042924D11AE04A4A52698A
:103EE00002F4002210464FEAD04210461BE0464A38
:103EF000526902F4801210464FEA1052104612E046
:103F0000414A526902F4001210464FEA50521046DC
:103F100009E03D4A526902F4800210464FEA90528D
:103F2000104600E000BF00BF70472DE9F041044695
:103F30000E4615461F46002D01DCBDE8F0813448D1
:103F400090FBF7F08046611EC9B208464146FDF776
:103F5000AAFE00212046FFF77BFE00212046FFF746
:103F600051FE601E00EBC0002A4A02EBC00090F830
:103F7000420001462046FFF718FFC6F10100014646
:103F80002046FFF7CFFE2046FFF77BFFA4F101009C
:103F9000214941F820500146C9B20846FDF736FED6
:103FA00000BF601E1C4951F820000028F9D1611E95
:103FB000C9B20846FDF745FE01212046FFF722FE63
:103FC00001212046FFF744FE00BFB6E770B5044666
:103FD0000D46A4F1010000EBC0000E4901EBC00149
:103FE000A4F1010000EBC0000A4E06EBC00090F8FF
:103FF0003C00A0F1010031F810000346A4F10100DB
:1040000000EBC000314609E000C00920FF0F800727
:1040100020BF02003A4C00102000001001EBC0004D
:1040200090F8410000EB8000024629462046FFF749
:104030007CFF70BD2DE9F04104460E4615461F4633
:10404000002D01DCBDE8F081FF4890FBF7F08046D1
:10405000611EC9B208464146FDF725FE00212046F3
:10406000FFF7F6FD00212046FFF7CCFD601E00EBB8
:10407000C000F64A02EBC00090F84200014620461C
:10408000FFF793FEC6F1010001462046FFF74AFE06
:104090002046FFF7F6FEA4F10100ED4941F820505B
:1040A0000146C9B20846FDF7B1FD08E02046FFF71A
:1040B00008FF611EE74A515C884200D105E0601E9E
:1040C000E34951F820000028F0D100BF611EC9B2B9
:1040D0000846FDF7B6FD01212046FFF793FD0121BB
:1040E0002046FFF7B5FD00BFACE730B502460B46F2
:1040F0004FF000000146044600BF10E0A2F10100AD
:1041000000EBC000D14D05EBC00000F12800405C81
:10411000204480B2044601F10100C0B20146994238
:10412000ECDB6004000C30BD2DE9F04F87B0804619
:104130008A464FF0000081468346A8F1010101EB59
:10414000C101C24A02EBC10191F841104FEA41019D
:10415000084605F0F4FD06460F46504605F000FE01
:1041600004460022BC4B05F003FD32463B46CDE938
:10417000000105F06EFDCDE9020106F0D1F8CDE9B0
:10418000040105F013FE80B282464FF00000814624
:1041900014E0A8F1010000EBC000AC4901EBC00045
:1041A00000F1280010F80900584480B28346DA452F
:1041B00000DC0EE009F10100C0B28146A8F1010067
:1041C00000EBC000A14901EBC00090F83C0048455D
:1041D000DFDC00BF484607B0BDE8F08F2DE9F041B5
:1041E00004460F461646002E01DCBDE8F081601E35
:1041F00000EBC000954A02EBC00090F83C0001467D
:104200002046FFF772FF611E01EBC1018F4A02EBEE
:10421000C10191F841104843B0427DDAA4F1010098
:1042200000EBC000114601EBC00090F83C008B4948
:1042300008704FF000052DE02046FFF742FE611E9A
:10424000844A515C884200D128E0601E00EBC00027
:104250007E4901EBC00030F815000346601E00EBFC
:10426000C00001EBC0002830405D611E01EBC101C0
:10427000DFF8D8C10CEBC10191F84110484340046C
:10428000000C024639462046FFF7D4FE05F1010036
:10429000C0B20546714800788542CDDB00BF20469C
:1042A000FFF70FFE611E6B4A515C88422ED0601EE4
:1042B00000EBC000654A02EBC00090F83C000146EC
:1042C0002046FFF712FF611E01EBC1015F4A02EBBE
:1042D000C10191F8411000FB11604004000C8046C0
:1042E000601E00EBC000114601EBC001601E00EB38
:1042F000C00002EBC00090F83C00401E31F81000F6
:104300000346424639462046FFF794FEA4F10100D9
:1043100000EBC0004D4900E03AE001EBC00090F82E
:104320003C00054631E02046FFF7CBFD0146601E0C
:10433000484A105C814200D129E0601E00EBC000B9
:10434000424901EBC001681E31F810000346601EAF
:1043500000EBC0003D4901EBC0002830691E405C05
:10436000611E01EBC101DFF8E4C00CEBC10191F863
:10437000411048434004000C024639462046FFF7EE
:1043800059FEA5F10100C0B20546002DCBDCE1E0ED
:10439000601E00EBC0002D4901EBC00090F8280022
:1043A0004000611E01EBC101284A02EBC10191F8F6
:1043B00041104843B0421ADB4FF001002749087012
:1043C0002046FFF77EFD611E224A515C8842DED006
:1043D000601E00EBC0001D4931F830000346700438
:1043E000000C024639462046FFF724FEB2E0314673
:1043F0002046FFF799FE194908704FF000053BE091
:104400002046FFF75EFD0146601E124A105C8142A5
:1044100000D135E0601E00EBC0000C4901EBC0008C
:1044200030F815000346601E00EBC00001EBC00031
:104430002830405D611E01EBC101DFF810C00CEBBC
:10444000C10191F841100BE020BF02003A4C00106E
:10445000200000104A0100100000F03F5001001041
:1044600048434004000C024639462046FFF7E2FD6F
:1044700005F10100C0B20546F94800788542BFDB6E
:1044800000BF2046FFF71DFD611EF64A515C8842C1
:1044900021D0F34801782046FFF727FE611E01EB8B
:1044A000C101F14A02EBC10191F8411000FB11601A
:1044B0004004000C8046601E00EBC000114601EB7A
:1044C000C000E749097830F81100034642463946F2
:1044D0002046FFF7AFFDA4F1010000EBC000E24968
:1044E00001EBC00090F83C00054630E02046FFF7A5
:1044F000E8FC611EDB4A515C884200D129E0601E65
:1045000000EBC000D84901EBC001681E31F8100073
:104510000346601E00EBC000D34901EBC000283009
:10452000691E405C611E01EBC101DFF83CC30CEB6E
:10453000C10191F8411048434004000C024639463D
:104540002046FFF777FDA5F10100C0B20546002D1A
:10455000CCDC00BF00BF48E62DE9F04104460F4621
:104560001646002E01DCBDE8F0814FF00000BF4987
:104570000870A4F1010000EBC000BB4A02EBC000D0
:1045800090F83C0001462046FFF7AFFD611E01EBAD
:10459000C101B54A02EBC10191F841104843B04254
:1045A00070DAA4F1010000EBC000114601EBC0007D
:1045B00090F83C00AA4908704FF0000524E0601E06
:1045C00000EBC000A84901EBC00030F8150003461D
:1045D000601E00EBC00001EBC0002830405D611E92
:1045E00001EBC101DFF880C20CEBC10191F8411071
:1045F00048434004000C024639462046FFF795FC2C
:1046000005F1010080B20546954800788542D6DB69
:10461000601E00EBC000944A02EBC00090F83C0022
:1046200001462046FFF761FD611E01EBC1018E4A84
:1046300002EBC10191F8411000FB11604004000C35
:104640008046601E00EBC000114601EBC001601EF9
:1046500000EBC00002EBC00090F83C00401E31F8B7
:1046600010000346424639462046FFF75EFCA4F19F
:10467000010000EBC0007C4901EBC00090F83C0059
:10468000054628E02AE0601E00EBC000764901EBF9
:10469000C001681E31F810000346601E00EBC00028
:1046A000714901EBC0002830691E405C611E01EBBE
:1046B000C101DFF8B4C10CEBC10191F841104843CE
:1046C0004004000C024639462046FFF72EFCA5F1B7
:1046D000010080B20546002DD5DCBAE0601E00EB7B
:1046E000C000614901EBC00090F828004000611E45
:1046F00001EBC1015C4A02EBC10191F84110484352
:10470000B04215DB4FF0010055490870A4F10100DB
:1047100000EBC000114631F8300003464FEA464036
:104720004FEA1040024639462046FFF7FEFB90E074
:1047300031462046FFF7F8FC494908704FF0000564
:1047400024E0601E00EBC000474901EBC00030F8D8
:1047500015000346601E00EBC00001EBC0002830CE
:10476000405D611E01EBC101DFF8FCC00CEBC10133
:1047700091F8411048434004000C02463946204657
:10478000FFF7D3FB05F1010080B2054634480078FD
:104790008542D6DB2046FFF794FB611E314A515C0F
:1047A000884221D02E4801782046FFF79EFC611EEA
:1047B00001EBC1012C4A02EBC10191F8411000FB51
:1047C00011604004000C8046601E00EBC0001146E2
:1047D00001EBC0002249097830F811000346424637
:1047E00039462046FFF7A1FBA4F1010000EBC00011
:1047F0001D4901EBC00090F83C00054627E0601E13
:1048000000EBC000184901EBC001681E31F8100030
:104810000346601E00EBC000134901EBC0002830C6
:10482000691E405C611E01EBC101DFF83CC00CEB6E
:10483000C10191F8411048434004000C024639463A
:104840002046FFF772FBA5F1010080B20546002D5E
:10485000D5DC4FF001000549087000BF83E6000079
:10486000500100104A0100103A4C0010A500001041
:1048700070B505460C46002C00DC70BD22460021B8
:104880002846FFF769FE00BFF7E770B505460C46FE
:10489000002C00DC70BD224601212846FFF75CFE9B
:1048A00000BFF7E770B504464FF0000005460CE086
:1048B0004FF47A7201212046FFF790FC0A20FDF7A1
:1048C000C9F805F10100C0B205462046FFF7F9FA24
:1048D000611EFF4A515C884201D0152DE8DB42F28F
:1048E00010712046FFF7C4FF0120FDF7B3F8601EEA
:1048F00000EBC000F74901EBC000C08F42F210711D
:10490000084480B2024601212046FFF767FC70BDD3
:1049100070B504460D464FF47A424FF000014FF057
:104920000100FFF719FE0120FDF794F84FF47A42D9
:1049300001210846FFF710FE0120FDF78BF870BD3E
:104940002DE9F04106464FF00000044605460746B3
:10495000E14908604FF00100FDF77CF801210846AD
:10496000FFF776F901210846FFF74CF94FF00000F8
:10497000DA490860DA4908704FF00100D949087037
:104980004FF0000004460DE04FF00000D64941F81A
:104990002400D64941F82400D549085504F1010006
:1049A000C0B20446322CEFDBCA4890F83C00014606
:1049B0000120FFF79AFBC74991F84110484306EBE5
:1049C0004601CC4A52F8211088427ED24FF00000B6
:1049D000044622E0BF482830005DBE4991F84110EE
:1049E00048434FEA4000C04941F82400B94830F834
:1049F0001400C14921F814004FF00000BB4941F8F0
:104A0000240006EB4600BB4901EB80008068B849F2
:104A1000085504F10100C0B20446AE4890F83C00CD
:104A2000A042D7DCAB4890F83C0001460120FFF7DC
:104A30005CFBA84991F8411006EB4602AD4B53F8D8
:104A4000222000FB11204FEA4000A74941F8240032
:104A5000A04890F83C00A0F101009E4931F81000F8
:104A6000A54921F814004FF00000A04941F82400A6
:104A700006EB4600194601EB800080689C4908550A
:104A800004F10100C0B204464FF0000005463CE0CE
:104A9000904890F83C00A0F10100A0EB05018D4882
:104AA00000F12800405C8B4991F8411000FB01F0B7
:104AB0004FEA400004EB05018B4A42F8210085488B
:104AC00090F83C00A0F1010000E040E0A0EB050000
:104AD000804931F8100004EB0501874A22F81100E3
:104AE0004FF0000004EB0501804A42F8210006EB7C
:104AF0004600804901EB8000806804EB05017C4A98
:104B0000505405F10100C0B20546724890F83C00CF
:104B1000A842BDDC06EB4600764901EB8000416807
:104B200004EB0500A0F10100704A42F8201069482A
:104B300090F83C0000F10100664991F83C100844EF
:104B40004FEA40604FEA10606C490870F5E0614838
:104B500090F8280040005F4991F84110484306EB67
:104B60004601644A52F82110884221D306EB4600E0
:104B7000114651F820004FEA40005B490860554853
:104B800000885D49088006EB4600114601EB800075
:104B900040685649086006EB4600114601EB80006C
:104BA0008068534908704FF0020054490870C4E00F
:104BB00006EB46004F4A52F8200080B20146012021
:104BC000FFF7B2FAC0B207464FF00000044622E0F9
:104BD00040482830005D3F4991F8411048434FEA72
:104BE0004000414941F824003A4830F81400424955
:104BF00021F814004FF000003C4941F8240006EB76
:104C000046003C4901EB800080683949085504F1B1
:104C10000100C0B20446BC42DADB39460120FFF78E
:104C200064FA2C4991F8411006EB4602314B53F8D7
:104C3000222000FB11204FEA40002B4941F82400BC
:104C4000244830F817002C4921F814004FF00000D8
:104C5000264941F8240006EB4600194601EB800086
:104C600080682349085504F10100C0B204464FF0A2
:104C70000000054649E0A7EB0501164800F12800B1
:104C8000405C144991F8411000FB01F04FEA4000EC
:104C900004EB0501144A42F82100A7EB05000D4979
:104CA00031F8100004EB0501134A22F811004FF00F
:104CB000000004EB05010D4A42F8210006EB460016
:104CC0000C4901EB8000806804EB0501084A17E0FD
:104CD0004A0100103A4C0010200000109000001013
:104CE0008C0000108D000010EC460010B44700103E
:104CF0007C48001054010010AE4800108E000010D7
:104D0000505405F10100C0B20546BD42B3DB06EBCD
:104D10004600FF4901EB8000416804EB0500A0F16B
:104D20000100FC4A42F8201007F1010038444FEA24
:104D300040604FEA1060F8490870BDE8F0812DE945
:104D4000F04106464FF00000044605460746F34989
:104D500048604FF00100FCF77DFE01210220FEF7C4
:104D600077FF01210220FEF74DFF4FF00000EC49D4
:104D70000860EC4908704FF00100EB4908704FF0F3
:104D8000000004460DE04FF00000E84941F824001F
:104D9000E74941F82400E749085504F10100C0B291
:104DA0000446322CEFDBE44890F8840001460220F0
:104DB000FFF79BF9E04991F88910484306EB46015B
:104DC000DE4A52F8211088427ED24FF0000004469D
:104DD00024E0D9487030005DD74991F8411048432C
:104DE0004FEA4000D14941F82400D34800F148007F
:104DF00030F81400D24921F814004FF00000CC49DB
:104E000041F8240006EB4600CC4901EB80008068A5
:104E1000C849085504F10100C0B20446C64890F8DC
:104E20008400A042D5DCC44890F8840001460220EA
:104E3000FFF75BF9C04991F8891006EB4602BF4BBA
:104E400053F8222000FB11204FEA4000B74941F8F7
:104E50002400B94890F88400A0F10100B64901F19E
:104E6000480131F81000B64921F814004FF0000055
:104E7000AF4941F8240006EB4600194601EB8000DB
:104E80008068AC49085504F10100C0B204464FF0F7
:104E9000000005463EE0A84890F88400A0F101001B
:104EA000A0EB0501A44800F17000405CA24991F814
:104EB000411000FB01F04FEA400004EB05019B4A62
:104EC00042F821009C4800E046E090F88400A0F100
:104ED0000100A0EB0501984800F1480030F81100EE
:104EE00004EB0501964A22F811004FF0000004EB94
:104EF00005018F4A42F8210006EB46008F4901EB7D
:104F00008000806804EB05018A4A505405F10100D5
:104F1000C0B20546884890F88400A842BBDC06EB86
:104F20004600864901EB8000416804EB0500A0F1D2
:104F300001007F4A42F820107F4890F8840000F179
:104F400001007D4991F8841008444FEA40604FEA1F
:104F500010607C49087000E1774890F870004000CC
:104F6000754991F88910484306EB4601734A52F897
:104F70002110884222D306EB4600114651F820004A
:104F80004FEA4000694908606B48B0F848006C4936
:104F9000088006EB4600114601EB8000406864493A
:104FA000086006EB4600114601EB8000806861490D
:104FB00008704FF0020063490870CEE006EB46002F
:104FC0005E4A52F8200080B201460220FFF7ACF89A
:104FD000C0B207464FF00000044624E05648703047
:104FE000005D554991F8411048434FEA40004F4950
:104FF00041F82400504800F1480030F814005049AE
:1050000021F814004FF00000494941F8240006EB54
:1050100046004A4901EB800080684649085504F182
:105020000100C0B20446BC42D8DB39460220FFF77B
:105030005CF8414991F8891006EB46023F4B53F862
:10504000222000FB11204FEA4000384941F824009B
:10505000394800F1480030F81700394921F81400A8
:105060004FF00000324941F8240006EB4600194693
:1050700001EB800080682F49085504F10100C0B29F
:1050800004464FF00000054632E0A7EB05012A4830
:1050900000F17000405C284991F8411000FB01F0DC
:1050A0004FEA400004EB0501204A42F82100A7EB3B
:1050B0000501214800F1480030F8110004EB05011A
:1050C0001F4A22F811004FF0000004EB0501184AB6
:1050D00042F8210006EB4600184901EB8000806889
:1050E00004EB0501134A505405F10100C0B2054616
:1050F000BD42CADB06EB4600104901EB8000416867
:1051000004EB0500A0F10100094A42F820101BE061
:1051100054010010B44700108E0000102000001051
:10512000A00000109C0000109D0000101449001009
:10513000DC490010A44A00103A4C00106C01001029
:10514000D64A00109E00001007F1010038444FEAD3
:1051500040604FEA10600F490870BDE8F08110B55B
:1051600004460D48C08F00F57A4080B202464FF0E9
:1051700001010846FFF732F83220FCF76BFC0648C5
:10518000C08F204480B2024601210220FFF7E4F9DB
:1051900010BD00009E0000103A4C00102DE9F04FA9
:1051A0008BB04FF000000646074680468146824697
:1051B000834609900890FF48007801287ED1FE4878
:1051C000006800287ED182468346064612E0FDF73D
:1051D00013F981464FEA194007461FFA89F08046C5
:1051E0000AEB070082460BEB0800834606F101003C
:1051F00080B20646B6F57A7FE9DB4FF47A70BAFBE7
:10520000F0F080B207464FF47A70BBFBF0F080B24A
:105210008046384604F08EFD019004F0DEFD044621
:105220004FF06632E54B04F0A3FC0022E44BCDE9DD
:10523000020104F00EFDE34AE34BCDE9040104F062
:1052400008FDCDE9060104F0DEFD0990404604F0BA
:1052500071FD019004F0C1FD4FF06632D74BCDE9EE
:10526000020104F085FC04460022D54B04F0F1FC59
:10527000D64AD74BCDE9040104F0EBFCCDE9060199
:1052800004F0C1FD08904FF06400CB4908604FF076
:1052900000004FF00101CDE900014FF08C034FF009
:1052A00078020290099802F0F9FD00200121CDE971
:1052B00000018C234FF48272029000E002E0089813
:1052C00002F0ECFD0BB0BDE8F08FC248007858B991
:1052D000C1480078012807D1BE490870BF4800685E
:1052E00000F10100BD4908607047BD48007858B919
:1052F000BC480078012807D1B9490870BA4800684D
:1053000000F10100B849086070473EB5B748007821
:1053100001286BD1B648406800287ED1B548007896
:105320000128FAD1B4480078B4490978884274DA7F
:10533000B1490978084601EBD0714FEA6101B0EB41
:10534000410154D1AC490978084601EBD0714FEACC
:105350006101AB4A32F81110AA4A92FBF1F1AA4A54
:1053600091614FF00100FCF788FC0120FCF74EFC36
:10537000A148007870BB00210220FEF769FC0021E3
:105380000220FEF73FFCA14890F88A000146022067
:10539000FEF70BFD98480078044600EBD4704010EF
:1053A0009B4A105C01460220FEF7BCFC00BF00BF18
:1053B00000BF00BF00BF00BF00BF00BF00BF00BFF5
:1053C00000BF00BF00BF00BF00BF00BF00BF00BFE5
:1053D00000BF00BF88490978084601EBD0714FEA49
:1053E00061018C4A52F82110814A516073E04FF0FC
:1053F00000008049087080490978A1F10101084640
:1054000001EBD0714FEA6101834A52F82110834ABF
:1054100011601046006828B900E00AE04FF0010072
:10542000744908707448007800F1010072490870EE
:1054300051E0714800787149097888424BD16D4834
:105440000078012847D101210220FEF701FC01214B
:105450000220FEF7D7FB72480078401CC0B27049AA
:105460000870022830D14FF0000008706D490968BB
:1054700001F101016B4A1160084604F05BFC04462F
:105480000020009001906923962201460290204658
:1054900002F004FD5148006804F04CFC0446002072
:1054A0000221CDE90001A0231422014602902046EA
:1054B00002F0F4FC4FF4FA705B4908604FF0000012
:1054C00045490870434908700120FCF7BAFB54486D
:1054D0000078FFF734FC3EBD3EB554480078012803
:1054E00064D143480068002861D151480078012800
:1054F000FAD15048007850490978884257DA4D4926
:105500000978084601EBD0714FEA6101B0EB410127
:105510004ED148490978084601EBD0714FEA610144
:10552000464A32F81110374A92FBF1F14FF040220F
:1055300091614FF00000FCF7A0FB0020FCF766FB38
:105540003C48007870BB00210120FEF781FB002160
:105550000120FEF757FB2D4890F84200014601203C
:10556000FEF723FC33480078044600EBD47040106B
:10557000334A105C01460120FEF7D4FB00BF00BF98
:1055800000BF00BF00BF00BF00BF00BF00BF00BF23
:1055900000BF00BF00BF00BF00BF00BF00BF00BF13
:1055A00000BF00BF2349097808464BE0C6E073E01E
:1055B00052E00000A60000101C00001066660A40C1
:1055C00000FEAF40B81E85EB51B89E3F7B14AE473E
:1055D000E17A843F85010010750000107C00001006
:1055E0008401001074000010780000109F0000106B
:1055F000200000109D0000109C0000109E00001074
:10560000D64A001020BF0200008000403A4C001033
:10561000A44A001014490010DC490010A00000103A
:10562000A400001098000010180000108F00001057
:105630008D0000108C0000108E000010AE4800108D
:105640007C48001001EBD0714FEA61017D4A52F8AD
:1056500021107D4A116071E04FF000007B49087015
:105660007B490978A1F10101084601EBD0714FEAAD
:105670006101784A52F82110774A1160104600689B
:1056800018B94FF00100714908707148007800F1B5
:1056900001006F49087051E06D4800786F49097842
:1056A00088424BD169480078012847D1012108463A
:1056B000FEF7CEFA01210846FEF7A4FA6848007802
:1056C000401CC0B266490870022830D14FF000007B
:1056D00008706449096801F10101624A11600846D5
:1056E00004F028FB044600200090019050239622ED
:1056F00001460290204602F0D1FB5B48006804F0AE
:1057000019FB044600200221CDE900017823142270
:1057100001460290204602F0C1FB4FF496705349B7
:1057200008604FF00000524908705249087000208C
:10573000FCF787FA4A480078FFF702F93EBD4E4869
:10574000007870477CB505464FF0000004464B4892
:105750000078002862D0012D06D0022D0DD0032D37
:1057600014D0042D24D11AE04548406900F40020EB
:1057700004464FEAD44004461BE04148406900F427
:10578000801004464FEA1450044612E03C48406939
:1057900000F4001004464FEA5450044609E038482B
:1057A000406900F4800004464FEA9450044600E04B
:1057B00000BF00BF33480078A0422FD031490C70A1
:1057C00008460078A8B9002002214FF6FF7378221E
:1057D000CDE90010C8212CA0FCF718F80120022107
:1057E00000237822CDE90010C8212BA0FCF70EF889
:1057F00014E0002002214FF6FF737822CDE900105B
:10580000C82121A0FCF702F8012002210023782200
:10581000CDE90010C82122A0FBF7F8FF7CBD10B530
:1058200021480078FFF78EFFFFF789FFFFF754FE4E
:10583000FFF76BFDFFF759FDFFF747FDFFF7AEFCE4
:1058400010BD0000EC460010200000108D0000107C
:105850008C000010B4470010900000108E00001063
:105860009400001088000010780000101400001050
:1058700074000010840100108F0000106F000010F1
:1058800000C00920700000102020202020202020AF
:105890002020202000000000B5CDB5E7C6BD0000E7
:1058A000B8DFB5E7C6BD00006E0000107047704756
:1058B0003EB5FBF7A4FFFF480078C0EBC000FE49EF
:1058C00001EB80004069FD49097801EB410100EBE3
:1058D00001104089F7490978C1EBC101F64A02EB92
:1058E00081014969F54A127802EB420201EB02118B
:1058F0000989F04A1278C2EBC202EF4B03EB820235
:105900005269EE4B1B7803EB430302EB0312D28880
:10591000E84CCDE9002102902478C4EBC404E64DA4
:1059200005EB84046469E54D2D7805EB450504EB32
:105930000514A4882346DF4C2478C4EBC404DE4D50
:1059400005EB84046469DD4D2D7805EB450504EB1A
:10595000051464882246D74C2478C4EBC404D64D81
:1059600005EB84046469D54D2D7805EB450504EB02
:10597000051424882146CF4C2478C4EBC404CE4DB2
:1059800005EB84046469CD4D2D7805EB450504EBEA
:105990000514647B2046FBF77FFCFBF725FFC54819
:1059A0000078C0EBC000C44901EB80004069C349E6
:1059B000097801EB410100EB01104089BD490978EC
:1059C000C1EBC101BC4A02EB81014969BB4A1278B3
:1059D00002EB420201EB02110989B64A1278C2EBCE
:1059E000C202B54B03EB82025269B44B1B7803EB46
:1059F000430302EB0312D288AE4CCDE900210290A2
:105A00002478C4EBC404AC4D05EB84046469AB4D4D
:105A10002D7805EB450504EB0514A4882346A54C19
:105A20002478C4EBC404A44D05EB84046469A34D3D
:105A30002D7805EB450504EB0514648822469D4C42
:105A40002478C4EBC4049C4D05EB840464699B4D2D
:105A50002D7805EB450504EB051424882146954C6B
:105A60002478C4EBC404944D05EB84046469934D1D
:105A70002D7805EB450504EB0514647B2046FBF708
:105A80000BFC3EBDFEB50446FBF7B9FE8948007825
:105A9000C0EBC000884901EB8000406904EB440181
:105AA00000EB0110408983490978C1EBC101824AAA
:105AB00002EB8101496904EB440201EB02110989FF
:105AC0007C4A1278C2EBC2027B4B03EB8202526922
:105AD00004EB440302EB0312D288764DCDE900219A
